{
	"contracts/sendEther.sol": {
		"sendEther": {
			"abi": [
				{
					"inputs": [],
					"name": "currentBalance",
					"outputs": [
						{
							"internalType": "uint256",
							"name": "",
							"type": "uint256"
						}
					],
					"stateMutability": "view",
					"type": "function"
				},
				{
					"inputs": [
						{
							"internalType": "address payable",
							"name": "_to",
							"type": "address"
						},
						{
							"internalType": "uint256",
							"name": "amount",
							"type": "uint256"
						}
					],
					"name": "sendViaCall",
					"outputs": [],
					"stateMutability": "payable",
					"type": "function"
				},
				{
					"stateMutability": "payable",
					"type": "receive"
				}
			],
			"devdoc": {
				"kind": "dev",
				"methods": {},
				"version": 1
			},
			"evm": {
				"assembly": "    /* \"contracts/sendEther.sol\":485:1035  contract sendEther{... */\n  mstore(0x40, 0x80)\n  callvalue\n  dup1\n  iszero\n  tag_1\n  jumpi\n  0x00\n  dup1\n  revert\ntag_1:\n  pop\n  dataSize(sub_0)\n  dup1\n  dataOffset(sub_0)\n  0x00\n  codecopy\n  0x00\n  return\nstop\n\nsub_0: assembly {\n        /* \"contracts/sendEther.sol\":485:1035  contract sendEther{... */\n      mstore(0x40, 0x80)\n      jumpi(tag_1, lt(calldatasize, 0x04))\n      shr(0xe0, calldataload(0x00))\n      dup1\n      0xce845d1d\n      eq\n      tag_3\n      jumpi\n      dup1\n      0xe4dc4f55\n      eq\n      tag_4\n      jumpi\n      jump(tag_2)\n    tag_1:\n      jumpi(tag_2, calldatasize)\n        /* \"contracts/sendEther.sol\":630:639  msg.value */\n      callvalue\n        /* \"contracts/sendEther.sol\":613:627  currentBalance */\n      0x00\n      dup1\n        /* \"contracts/sendEther.sol\":613:639  currentBalance +=msg.value */\n      dup3\n      dup3\n      sload\n      tag_7\n      swap2\n      swap1\n      tag_8\n      jump\t// in\n    tag_7:\n      swap3\n      pop\n      pop\n      dup2\n      swap1\n      sstore\n      stop\n        /* \"contracts/sendEther.sol\":485:1035  contract sendEther{... */\n    tag_2:\n      0x00\n      dup1\n      revert\n        /* \"contracts/sendEther.sol\":541:567  uint public currentBalance */\n    tag_3:\n      callvalue\n      dup1\n      iszero\n      tag_9\n      jumpi\n      0x00\n      dup1\n      revert\n    tag_9:\n      pop\n      tag_10\n      tag_11\n      jump\t// in\n    tag_10:\n      mload(0x40)\n      tag_12\n      swap2\n      swap1\n      tag_13\n      jump\t// in\n    tag_12:\n      mload(0x40)\n      dup1\n      swap2\n      sub\n      swap1\n      return\n        /* \"contracts/sendEther.sol\":655:870  function sendViaCall(address payable _to, uint amount) public payable{... */\n    tag_4:\n      tag_14\n      0x04\n      dup1\n      calldatasize\n      sub\n      dup2\n      add\n      swap1\n      tag_15\n      swap2\n      swap1\n      tag_16\n      jump\t// in\n    tag_15:\n      tag_17\n      jump\t// in\n    tag_14:\n      stop\n        /* \"contracts/sendEther.sol\":541:567  uint public currentBalance */\n    tag_11:\n      sload(0x00)\n      dup2\n      jump\t// out\n        /* \"contracts/sendEther.sol\":655:870  function sendViaCall(address payable _to, uint amount) public payable{... */\n    tag_17:\n        /* \"contracts/sendEther.sol\":736:748  bool success */\n      0x00\n        /* \"contracts/sendEther.sol\":753:756  _to */\n      dup3\n        /* \"contracts/sendEther.sol\":753:761  _to.call */\n      0xffffffffffffffffffffffffffffffffffffffff\n      and\n        /* \"contracts/sendEther.sol\":768:774  amount */\n      dup3\n        /* \"contracts/sendEther.sol\":753:779  _to.call{value:amount}(\"\") */\n      mload(0x40)\n      tag_19\n      swap1\n      tag_20\n      jump\t// in\n    tag_19:\n      0x00\n      mload(0x40)\n      dup1\n      dup4\n      sub\n      dup2\n      dup6\n      dup8\n      gas\n      call\n      swap3\n      pop\n      pop\n      pop\n      returndatasize\n      dup1\n      0x00\n      dup2\n      eq\n      tag_23\n      jumpi\n      mload(0x40)\n      swap2\n      pop\n      and(add(returndatasize, 0x3f), not(0x1f))\n      dup3\n      add\n      0x40\n      mstore\n      returndatasize\n      dup3\n      mstore\n      returndatasize\n      0x00\n      0x20\n      dup5\n      add\n      returndatacopy\n      jump(tag_22)\n    tag_23:\n      0x60\n      swap2\n      pop\n    tag_22:\n      pop\n        /* \"contracts/sendEther.sol\":735:779  (bool success,) = _to.call{value:amount}(\"\") */\n      pop\n      swap1\n      pop\n        /* \"contracts/sendEther.sol\":795:802  success */\n      dup1\n        /* \"contracts/sendEther.sol\":792:863  if(success)... */\n      iszero\n      tag_24\n      jumpi\n        /* \"contracts/sendEther.sol\":845:851  amount */\n      dup2\n        /* \"contracts/sendEther.sol\":828:842  currentBalance */\n      0x00\n      dup1\n        /* \"contracts/sendEther.sol\":828:851  currentBalance -=amount */\n      dup3\n      dup3\n      sload\n      tag_25\n      swap2\n      swap1\n      tag_26\n      jump\t// in\n    tag_25:\n      swap3\n      pop\n      pop\n      dup2\n      swap1\n      sstore\n      pop\n        /* \"contracts/sendEther.sol\":792:863  if(success)... */\n    tag_24:\n        /* \"contracts/sendEther.sol\":724:870  {... */\n      pop\n        /* \"contracts/sendEther.sol\":655:870  function sendViaCall(address payable _to, uint amount) public payable{... */\n      pop\n      pop\n      jump\t// out\n        /* \"#utility.yul\":7:84   */\n    tag_27:\n        /* \"#utility.yul\":44:51   */\n      0x00\n        /* \"#utility.yul\":73:78   */\n      dup2\n        /* \"#utility.yul\":62:78   */\n      swap1\n      pop\n        /* \"#utility.yul\":7:84   */\n      swap2\n      swap1\n      pop\n      jump\t// out\n        /* \"#utility.yul\":90:270   */\n    tag_28:\n        /* \"#utility.yul\":138:215   */\n      0x4e487b7100000000000000000000000000000000000000000000000000000000\n        /* \"#utility.yul\":135:136   */\n      0x00\n        /* \"#utility.yul\":128:216   */\n      mstore\n        /* \"#utility.yul\":235:239   */\n      0x11\n        /* \"#utility.yul\":232:233   */\n      0x04\n        /* \"#utility.yul\":225:240   */\n      mstore\n        /* \"#utility.yul\":259:263   */\n      0x24\n        /* \"#utility.yul\":256:257   */\n      0x00\n        /* \"#utility.yul\":249:264   */\n      revert\n        /* \"#utility.yul\":276:467   */\n    tag_8:\n        /* \"#utility.yul\":316:319   */\n      0x00\n        /* \"#utility.yul\":335:355   */\n      tag_46\n        /* \"#utility.yul\":353:354   */\n      dup3\n        /* \"#utility.yul\":335:355   */\n      tag_27\n      jump\t// in\n    tag_46:\n        /* \"#utility.yul\":330:355   */\n      swap2\n      pop\n        /* \"#utility.yul\":369:389   */\n      tag_47\n        /* \"#utility.yul\":387:388   */\n      dup4\n        /* \"#utility.yul\":369:389   */\n      tag_27\n      jump\t// in\n    tag_47:\n        /* \"#utility.yul\":364:389   */\n      swap3\n      pop\n        /* \"#utility.yul\":412:413   */\n      dup3\n        /* \"#utility.yul\":409:410   */\n      dup3\n        /* \"#utility.yul\":405:414   */\n      add\n        /* \"#utility.yul\":398:414   */\n      swap1\n      pop\n        /* \"#utility.yul\":433:436   */\n      dup1\n        /* \"#utility.yul\":430:431   */\n      dup3\n        /* \"#utility.yul\":427:437   */\n      gt\n        /* \"#utility.yul\":424:460   */\n      iszero\n      tag_48\n      jumpi\n        /* \"#utility.yul\":440:458   */\n      tag_49\n      tag_28\n      jump\t// in\n    tag_49:\n        /* \"#utility.yul\":424:460   */\n    tag_48:\n        /* \"#utility.yul\":276:467   */\n      swap3\n      swap2\n      pop\n      pop\n      jump\t// out\n        /* \"#utility.yul\":473:591   */\n    tag_29:\n        /* \"#utility.yul\":560:584   */\n      tag_51\n        /* \"#utility.yul\":578:583   */\n      dup2\n        /* \"#utility.yul\":560:584   */\n      tag_27\n      jump\t// in\n    tag_51:\n        /* \"#utility.yul\":555:558   */\n      dup3\n        /* \"#utility.yul\":548:585   */\n      mstore\n        /* \"#utility.yul\":473:591   */\n      pop\n      pop\n      jump\t// out\n        /* \"#utility.yul\":597:819   */\n    tag_13:\n        /* \"#utility.yul\":690:694   */\n      0x00\n        /* \"#utility.yul\":728:730   */\n      0x20\n        /* \"#utility.yul\":717:726   */\n      dup3\n        /* \"#utility.yul\":713:731   */\n      add\n        /* \"#utility.yul\":705:731   */\n      swap1\n      pop\n        /* \"#utility.yul\":741:812   */\n      tag_53\n        /* \"#utility.yul\":809:810   */\n      0x00\n        /* \"#utility.yul\":798:807   */\n      dup4\n        /* \"#utility.yul\":794:811   */\n      add\n        /* \"#utility.yul\":785:791   */\n      dup5\n        /* \"#utility.yul\":741:812   */\n      tag_29\n      jump\t// in\n    tag_53:\n        /* \"#utility.yul\":597:819   */\n      swap3\n      swap2\n      pop\n      pop\n      jump\t// out\n        /* \"#utility.yul\":906:1023   */\n    tag_31:\n        /* \"#utility.yul\":1015:1016   */\n      0x00\n        /* \"#utility.yul\":1012:1013   */\n      dup1\n        /* \"#utility.yul\":1005:1017   */\n      revert\n        /* \"#utility.yul\":1152:1278   */\n    tag_33:\n        /* \"#utility.yul\":1189:1196   */\n      0x00\n        /* \"#utility.yul\":1229:1271   */\n      0xffffffffffffffffffffffffffffffffffffffff\n        /* \"#utility.yul\":1222:1227   */\n      dup3\n        /* \"#utility.yul\":1218:1272   */\n      and\n        /* \"#utility.yul\":1207:1272   */\n      swap1\n      pop\n        /* \"#utility.yul\":1152:1278   */\n      swap2\n      swap1\n      pop\n      jump\t// out\n        /* \"#utility.yul\":1284:1388   */\n    tag_34:\n        /* \"#utility.yul\":1329:1336   */\n      0x00\n        /* \"#utility.yul\":1358:1382   */\n      tag_59\n        /* \"#utility.yul\":1376:1381   */\n      dup3\n        /* \"#utility.yul\":1358:1382   */\n      tag_33\n      jump\t// in\n    tag_59:\n        /* \"#utility.yul\":1347:1382   */\n      swap1\n      pop\n        /* \"#utility.yul\":1284:1388   */\n      swap2\n      swap1\n      pop\n      jump\t// out\n        /* \"#utility.yul\":1394:1532   */\n    tag_35:\n        /* \"#utility.yul\":1475:1507   */\n      tag_61\n        /* \"#utility.yul\":1501:1506   */\n      dup2\n        /* \"#utility.yul\":1475:1507   */\n      tag_34\n      jump\t// in\n    tag_61:\n        /* \"#utility.yul\":1468:1473   */\n      dup2\n        /* \"#utility.yul\":1465:1508   */\n      eq\n        /* \"#utility.yul\":1455:1526   */\n      tag_62\n      jumpi\n        /* \"#utility.yul\":1522:1523   */\n      0x00\n        /* \"#utility.yul\":1519:1520   */\n      dup1\n        /* \"#utility.yul\":1512:1524   */\n      revert\n        /* \"#utility.yul\":1455:1526   */\n    tag_62:\n        /* \"#utility.yul\":1394:1532   */\n      pop\n      jump\t// out\n        /* \"#utility.yul\":1538:1693   */\n    tag_36:\n        /* \"#utility.yul\":1592:1597   */\n      0x00\n        /* \"#utility.yul\":1630:1636   */\n      dup2\n        /* \"#utility.yul\":1617:1637   */\n      calldataload\n        /* \"#utility.yul\":1608:1637   */\n      swap1\n      pop\n        /* \"#utility.yul\":1646:1687   */\n      tag_64\n        /* \"#utility.yul\":1681:1686   */\n      dup2\n        /* \"#utility.yul\":1646:1687   */\n      tag_35\n      jump\t// in\n    tag_64:\n        /* \"#utility.yul\":1538:1693   */\n      swap3\n      swap2\n      pop\n      pop\n      jump\t// out\n        /* \"#utility.yul\":1699:1821   */\n    tag_37:\n        /* \"#utility.yul\":1772:1796   */\n      tag_66\n        /* \"#utility.yul\":1790:1795   */\n      dup2\n        /* \"#utility.yul\":1772:1796   */\n      tag_27\n      jump\t// in\n    tag_66:\n        /* \"#utility.yul\":1765:1770   */\n      dup2\n        /* \"#utility.yul\":1762:1797   */\n      eq\n        /* \"#utility.yul\":1752:1815   */\n      tag_67\n      jumpi\n        /* \"#utility.yul\":1811:1812   */\n      0x00\n        /* \"#utility.yul\":1808:1809   */\n      dup1\n        /* \"#utility.yul\":1801:1813   */\n      revert\n        /* \"#utility.yul\":1752:1815   */\n    tag_67:\n        /* \"#utility.yul\":1699:1821   */\n      pop\n      jump\t// out\n        /* \"#utility.yul\":1827:1966   */\n    tag_38:\n        /* \"#utility.yul\":1873:1878   */\n      0x00\n        /* \"#utility.yul\":1911:1917   */\n      dup2\n        /* \"#utility.yul\":1898:1918   */\n      calldataload\n        /* \"#utility.yul\":1889:1918   */\n      swap1\n      pop\n        /* \"#utility.yul\":1927:1960   */\n      tag_69\n        /* \"#utility.yul\":1954:1959   */\n      dup2\n        /* \"#utility.yul\":1927:1960   */\n      tag_37\n      jump\t// in\n    tag_69:\n        /* \"#utility.yul\":1827:1966   */\n      swap3\n      swap2\n      pop\n      pop\n      jump\t// out\n        /* \"#utility.yul\":1972:2462   */\n    tag_16:\n        /* \"#utility.yul\":2048:2054   */\n      0x00\n        /* \"#utility.yul\":2056:2062   */\n      dup1\n        /* \"#utility.yul\":2105:2107   */\n      0x40\n        /* \"#utility.yul\":2093:2102   */\n      dup4\n        /* \"#utility.yul\":2084:2091   */\n      dup6\n        /* \"#utility.yul\":2080:2103   */\n      sub\n        /* \"#utility.yul\":2076:2108   */\n      slt\n        /* \"#utility.yul\":2073:2192   */\n      iszero\n      tag_71\n      jumpi\n        /* \"#utility.yul\":2111:2190   */\n      tag_72\n      tag_31\n      jump\t// in\n    tag_72:\n        /* \"#utility.yul\":2073:2192   */\n    tag_71:\n        /* \"#utility.yul\":2231:2232   */\n      0x00\n        /* \"#utility.yul\":2256:2317   */\n      tag_73\n        /* \"#utility.yul\":2309:2316   */\n      dup6\n        /* \"#utility.yul\":2300:2306   */\n      dup3\n        /* \"#utility.yul\":2289:2298   */\n      dup7\n        /* \"#utility.yul\":2285:2307   */\n      add\n        /* \"#utility.yul\":2256:2317   */\n      tag_36\n      jump\t// in\n    tag_73:\n        /* \"#utility.yul\":2246:2317   */\n      swap3\n      pop\n        /* \"#utility.yul\":2202:2327   */\n      pop\n        /* \"#utility.yul\":2366:2368   */\n      0x20\n        /* \"#utility.yul\":2392:2445   */\n      tag_74\n        /* \"#utility.yul\":2437:2444   */\n      dup6\n        /* \"#utility.yul\":2428:2434   */\n      dup3\n        /* \"#utility.yul\":2417:2426   */\n      dup7\n        /* \"#utility.yul\":2413:2435   */\n      add\n        /* \"#utility.yul\":2392:2445   */\n      tag_38\n      jump\t// in\n    tag_74:\n        /* \"#utility.yul\":2382:2445   */\n      swap2\n      pop\n        /* \"#utility.yul\":2337:2455   */\n      pop\n        /* \"#utility.yul\":1972:2462   */\n      swap3\n      pop\n      swap3\n      swap1\n      pop\n      jump\t// out\n        /* \"#utility.yul\":2468:2615   */\n    tag_39:\n        /* \"#utility.yul\":2569:2580   */\n      0x00\n        /* \"#utility.yul\":2606:2609   */\n      dup2\n        /* \"#utility.yul\":2591:2609   */\n      swap1\n      pop\n        /* \"#utility.yul\":2468:2615   */\n      swap3\n      swap2\n      pop\n      pop\n      jump\t// out\n        /* \"#utility.yul\":2621:2735   */\n    tag_40:\n      pop\n      jump\t// out\n        /* \"#utility.yul\":2741:3139   */\n    tag_41:\n        /* \"#utility.yul\":2900:2903   */\n      0x00\n        /* \"#utility.yul\":2921:3004   */\n      tag_78\n        /* \"#utility.yul\":3002:3003   */\n      0x00\n        /* \"#utility.yul\":2997:3000   */\n      dup4\n        /* \"#utility.yul\":2921:3004   */\n      tag_39\n      jump\t// in\n    tag_78:\n        /* \"#utility.yul\":2914:3004   */\n      swap2\n      pop\n        /* \"#utility.yul\":3013:3106   */\n      tag_79\n        /* \"#utility.yul\":3102:3105   */\n      dup3\n        /* \"#utility.yul\":3013:3106   */\n      tag_40\n      jump\t// in\n    tag_79:\n        /* \"#utility.yul\":3131:3132   */\n      0x00\n        /* \"#utility.yul\":3126:3129   */\n      dup3\n        /* \"#utility.yul\":3122:3133   */\n      add\n        /* \"#utility.yul\":3115:3133   */\n      swap1\n      pop\n        /* \"#utility.yul\":2741:3139   */\n      swap2\n      swap1\n      pop\n      jump\t// out\n        /* \"#utility.yul\":3145:3524   */\n    tag_20:\n        /* \"#utility.yul\":3329:3332   */\n      0x00\n        /* \"#utility.yul\":3351:3498   */\n      tag_81\n        /* \"#utility.yul\":3494:3497   */\n      dup3\n        /* \"#utility.yul\":3351:3498   */\n      tag_41\n      jump\t// in\n    tag_81:\n        /* \"#utility.yul\":3344:3498   */\n      swap2\n      pop\n        /* \"#utility.yul\":3515:3518   */\n      dup2\n        /* \"#utility.yul\":3508:3518   */\n      swap1\n      pop\n        /* \"#utility.yul\":3145:3524   */\n      swap2\n      swap1\n      pop\n      jump\t// out\n        /* \"#utility.yul\":3530:3724   */\n    tag_26:\n        /* \"#utility.yul\":3570:3574   */\n      0x00\n        /* \"#utility.yul\":3590:3610   */\n      tag_83\n        /* \"#utility.yul\":3608:3609   */\n      dup3\n        /* \"#utility.yul\":3590:3610   */\n      tag_27\n      jump\t// in\n    tag_83:\n        /* \"#utility.yul\":3585:3610   */\n      swap2\n      pop\n        /* \"#utility.yul\":3624:3644   */\n      tag_84\n        /* \"#utility.yul\":3642:3643   */\n      dup4\n        /* \"#utility.yul\":3624:3644   */\n      tag_27\n      jump\t// in\n    tag_84:\n        /* \"#utility.yul\":3619:3644   */\n      swap3\n      pop\n        /* \"#utility.yul\":3668:3669   */\n      dup3\n        /* \"#utility.yul\":3665:3666   */\n      dup3\n        /* \"#utility.yul\":3661:3670   */\n      sub\n        /* \"#utility.yul\":3653:3670   */\n      swap1\n      pop\n        /* \"#utility.yul\":3692:3693   */\n      dup2\n        /* \"#utility.yul\":3686:3690   */\n      dup2\n        /* \"#utility.yul\":3683:3694   */\n      gt\n        /* \"#utility.yul\":3680:3717   */\n      iszero\n      tag_85\n      jumpi\n        /* \"#utility.yul\":3697:3715   */\n      tag_86\n      tag_28\n      jump\t// in\n    tag_86:\n        /* \"#utility.yul\":3680:3717   */\n    tag_85:\n        /* \"#utility.yul\":3530:3724   */\n      swap3\n      swap2\n      pop\n      pop\n      jump\t// out\n\n    auxdata: 0xa2646970667358221220e7e26df4375e4ee591261e6886a13fe050ce41b2792573ff32b700f0b0705e1d64736f6c63430008120033\n}\n",
				"bytecode": {
					"linkReferences": {},
					"object": "608060405234801561001057600080fd5b50610343806100206000396000f3fe60806040526004361061002d5760003560e01c8063ce845d1d14610050578063e4dc4f551461007b5761004b565b3661004b57346000808282546100439190610166565b925050819055005b600080fd5b34801561005c57600080fd5b50610065610097565b60405161007291906101a9565b60405180910390f35b61009560048036038101906100909190610253565b61009d565b005b60005481565b60008273ffffffffffffffffffffffffffffffffffffffff16826040516100c3906102c4565b60006040518083038185875af1925050503d8060008114610100576040519150601f19603f3d011682016040523d82523d6000602084013e610105565b606091505b505090508015610128578160008082825461012091906102d9565b925050819055505b505050565b6000819050919050565b7f4e487b7100000000000000000000000000000000000000000000000000000000600052601160045260246000fd5b60006101718261012d565b915061017c8361012d565b925082820190508082111561019457610193610137565b5b92915050565b6101a38161012d565b82525050565b60006020820190506101be600083018461019a565b92915050565b600080fd5b600073ffffffffffffffffffffffffffffffffffffffff82169050919050565b60006101f4826101c9565b9050919050565b610204816101e9565b811461020f57600080fd5b50565b600081359050610221816101fb565b92915050565b6102308161012d565b811461023b57600080fd5b50565b60008135905061024d81610227565b92915050565b6000806040838503121561026a576102696101c4565b5b600061027885828601610212565b92505060206102898582860161023e565b9150509250929050565b600081905092915050565b50565b60006102ae600083610293565b91506102b98261029e565b600082019050919050565b60006102cf826102a1565b9150819050919050565b60006102e48261012d565b91506102ef8361012d565b925082820390508181111561030757610306610137565b5b9291505056fea2646970667358221220e7e26df4375e4ee591261e6886a13fe050ce41b2792573ff32b700f0b0705e1d64736f6c63430008120033",
					"opcodes": "PUSH1 0x80 PUSH1 0x40 MSTORE CALLVALUE DUP1 ISZERO PUSH2 0x10 JUMPI PUSH1 0x0 DUP1 REVERT JUMPDEST POP PUSH2 0x343 DUP1 PUSH2 0x20 PUSH1 0x0 CODECOPY PUSH1 0x0 RETURN INVALID PUSH1 0x80 PUSH1 0x40 MSTORE PUSH1 0x4 CALLDATASIZE LT PUSH2 0x2D JUMPI PUSH1 0x0 CALLDATALOAD PUSH1 0xE0 SHR DUP1 PUSH4 0xCE845D1D EQ PUSH2 0x50 JUMPI DUP1 PUSH4 0xE4DC4F55 EQ PUSH2 0x7B JUMPI PUSH2 0x4B JUMP JUMPDEST CALLDATASIZE PUSH2 0x4B JUMPI CALLVALUE PUSH1 0x0 DUP1 DUP3 DUP3 SLOAD PUSH2 0x43 SWAP2 SWAP1 PUSH2 0x166 JUMP JUMPDEST SWAP3 POP POP DUP2 SWAP1 SSTORE STOP JUMPDEST PUSH1 0x0 DUP1 REVERT JUMPDEST CALLVALUE DUP1 ISZERO PUSH2 0x5C JUMPI PUSH1 0x0 DUP1 REVERT JUMPDEST POP PUSH2 0x65 PUSH2 0x97 JUMP JUMPDEST PUSH1 0x40 MLOAD PUSH2 0x72 SWAP2 SWAP1 PUSH2 0x1A9 JUMP JUMPDEST PUSH1 0x40 MLOAD DUP1 SWAP2 SUB SWAP1 RETURN JUMPDEST PUSH2 0x95 PUSH1 0x4 DUP1 CALLDATASIZE SUB DUP2 ADD SWAP1 PUSH2 0x90 SWAP2 SWAP1 PUSH2 0x253 JUMP JUMPDEST PUSH2 0x9D JUMP JUMPDEST STOP JUMPDEST PUSH1 0x0 SLOAD DUP2 JUMP JUMPDEST PUSH1 0x0 DUP3 PUSH20 0xFFFFFFFFFFFFFFFFFFFFFFFFFFFFFFFFFFFFFFFF AND DUP3 PUSH1 0x40 MLOAD PUSH2 0xC3 SWAP1 PUSH2 0x2C4 JUMP JUMPDEST PUSH1 0x0 PUSH1 0x40 MLOAD DUP1 DUP4 SUB DUP2 DUP6 DUP8 GAS CALL SWAP3 POP POP POP RETURNDATASIZE DUP1 PUSH1 0x0 DUP2 EQ PUSH2 0x100 JUMPI PUSH1 0x40 MLOAD SWAP2 POP PUSH1 0x1F NOT PUSH1 0x3F RETURNDATASIZE ADD AND DUP3 ADD PUSH1 0x40 MSTORE RETURNDATASIZE DUP3 MSTORE RETURNDATASIZE PUSH1 0x0 PUSH1 0x20 DUP5 ADD RETURNDATACOPY PUSH2 0x105 JUMP JUMPDEST PUSH1 0x60 SWAP2 POP JUMPDEST POP POP SWAP1 POP DUP1 ISZERO PUSH2 0x128 JUMPI DUP2 PUSH1 0x0 DUP1 DUP3 DUP3 SLOAD PUSH2 0x120 SWAP2 SWAP1 PUSH2 0x2D9 JUMP JUMPDEST SWAP3 POP POP DUP2 SWAP1 SSTORE POP JUMPDEST POP POP POP JUMP JUMPDEST PUSH1 0x0 DUP2 SWAP1 POP SWAP2 SWAP1 POP JUMP JUMPDEST PUSH32 0x4E487B7100000000000000000000000000000000000000000000000000000000 PUSH1 0x0 MSTORE PUSH1 0x11 PUSH1 0x4 MSTORE PUSH1 0x24 PUSH1 0x0 REVERT JUMPDEST PUSH1 0x0 PUSH2 0x171 DUP3 PUSH2 0x12D JUMP JUMPDEST SWAP2 POP PUSH2 0x17C DUP4 PUSH2 0x12D JUMP JUMPDEST SWAP3 POP DUP3 DUP3 ADD SWAP1 POP DUP1 DUP3 GT ISZERO PUSH2 0x194 JUMPI PUSH2 0x193 PUSH2 0x137 JUMP JUMPDEST JUMPDEST SWAP3 SWAP2 POP POP JUMP JUMPDEST PUSH2 0x1A3 DUP2 PUSH2 0x12D JUMP JUMPDEST DUP3 MSTORE POP POP JUMP JUMPDEST PUSH1 0x0 PUSH1 0x20 DUP3 ADD SWAP1 POP PUSH2 0x1BE PUSH1 0x0 DUP4 ADD DUP5 PUSH2 0x19A JUMP JUMPDEST SWAP3 SWAP2 POP POP JUMP JUMPDEST PUSH1 0x0 DUP1 REVERT JUMPDEST PUSH1 0x0 PUSH20 0xFFFFFFFFFFFFFFFFFFFFFFFFFFFFFFFFFFFFFFFF DUP3 AND SWAP1 POP SWAP2 SWAP1 POP JUMP JUMPDEST PUSH1 0x0 PUSH2 0x1F4 DUP3 PUSH2 0x1C9 JUMP JUMPDEST SWAP1 POP SWAP2 SWAP1 POP JUMP JUMPDEST PUSH2 0x204 DUP2 PUSH2 0x1E9 JUMP JUMPDEST DUP2 EQ PUSH2 0x20F JUMPI PUSH1 0x0 DUP1 REVERT JUMPDEST POP JUMP JUMPDEST PUSH1 0x0 DUP2 CALLDATALOAD SWAP1 POP PUSH2 0x221 DUP2 PUSH2 0x1FB JUMP JUMPDEST SWAP3 SWAP2 POP POP JUMP JUMPDEST PUSH2 0x230 DUP2 PUSH2 0x12D JUMP JUMPDEST DUP2 EQ PUSH2 0x23B JUMPI PUSH1 0x0 DUP1 REVERT JUMPDEST POP JUMP JUMPDEST PUSH1 0x0 DUP2 CALLDATALOAD SWAP1 POP PUSH2 0x24D DUP2 PUSH2 0x227 JUMP JUMPDEST SWAP3 SWAP2 POP POP JUMP JUMPDEST PUSH1 0x0 DUP1 PUSH1 0x40 DUP4 DUP6 SUB SLT ISZERO PUSH2 0x26A JUMPI PUSH2 0x269 PUSH2 0x1C4 JUMP JUMPDEST JUMPDEST PUSH1 0x0 PUSH2 0x278 DUP6 DUP3 DUP7 ADD PUSH2 0x212 JUMP JUMPDEST SWAP3 POP POP PUSH1 0x20 PUSH2 0x289 DUP6 DUP3 DUP7 ADD PUSH2 0x23E JUMP JUMPDEST SWAP2 POP POP SWAP3 POP SWAP3 SWAP1 POP JUMP JUMPDEST PUSH1 0x0 DUP2 SWAP1 POP SWAP3 SWAP2 POP POP JUMP JUMPDEST POP JUMP JUMPDEST PUSH1 0x0 PUSH2 0x2AE PUSH1 0x0 DUP4 PUSH2 0x293 JUMP JUMPDEST SWAP2 POP PUSH2 0x2B9 DUP3 PUSH2 0x29E JUMP JUMPDEST PUSH1 0x0 DUP3 ADD SWAP1 POP SWAP2 SWAP1 POP JUMP JUMPDEST PUSH1 0x0 PUSH2 0x2CF DUP3 PUSH2 0x2A1 JUMP JUMPDEST SWAP2 POP DUP2 SWAP1 POP SWAP2 SWAP1 POP JUMP JUMPDEST PUSH1 0x0 PUSH2 0x2E4 DUP3 PUSH2 0x12D JUMP JUMPDEST SWAP2 POP PUSH2 0x2EF DUP4 PUSH2 0x12D JUMP JUMPDEST SWAP3 POP DUP3 DUP3 SUB SWAP1 POP DUP2 DUP2 GT ISZERO PUSH2 0x307 JUMPI PUSH2 0x306 PUSH2 0x137 JUMP JUMPDEST JUMPDEST SWAP3 SWAP2 POP POP JUMP INVALID LOG2 PUSH5 0x6970667358 0x22 SLT KECCAK256 0xE7 0xE2 PUSH14 0xF4375E4EE591261E6886A13FE050 0xCE COINBASE 0xB2 PUSH26 0x2573FF32B700F0B0705E1D64736F6C6343000812003300000000 "
				},
				"gasEstimates": {
					"creation": {
						"codeDepositCost": "167000",
						"executionCost": "214",
						"totalCost": "167214"
					},
					"external": {
						"currentBalance()": "2407",
						"sendViaCall(address,uint256)": "infinite"
					}
				},
				"methodIdentifiers": {
					"currentBalance()": "ce845d1d",
					"sendViaCall(address,uint256)": "e4dc4f55"
				}
			},
			"storageLayout": {
				"storage": [
					{
						"astId": 3,
						"contract": "contracts/sendEther.sol:sendEther",
						"label": "currentBalance",
						"offset": 0,
						"slot": "0",
						"type": "t_uint256"
					}
				],
				"types": {
					"t_uint256": {
						"encoding": "inplace",
						"label": "uint256",
						"numberOfBytes": "32"
					}
				}
			},
			"userdoc": {
				"kind": "user",
				"methods": {},
				"version": 1
			}
		}
	}
}